{
  "_format": "hh-sol-artifact-1",
  "contractName": "FlashLoanExample",
  "sourceName": "contracts/FlashLoanExample.sol",
  "abi": [
    {
      "inputs": [
        {
          "internalType": "contract IPoolAddressesProvider",
          "name": "provider",
          "type": "address"
        }
      ],
      "stateMutability": "nonpayable",
      "type": "constructor"
    },
    {
      "anonymous": false,
      "inputs": [
        {
          "indexed": false,
          "internalType": "address",
          "name": "asset",
          "type": "address"
        },
        {
          "indexed": false,
          "internalType": "uint256",
          "name": "val",
          "type": "uint256"
        }
      ],
      "name": "Log",
      "type": "event"
    },
    {
      "inputs": [],
      "name": "ADDRESSES_PROVIDER",
      "outputs": [
        {
          "internalType": "contract IPoolAddressesProvider",
          "name": "",
          "type": "address"
        }
      ],
      "stateMutability": "view",
      "type": "function"
    },
    {
      "inputs": [],
      "name": "POOL",
      "outputs": [
        {
          "internalType": "contract IPool",
          "name": "",
          "type": "address"
        }
      ],
      "stateMutability": "view",
      "type": "function"
    },
    {
      "inputs": [
        {
          "internalType": "address",
          "name": "asset",
          "type": "address"
        },
        {
          "internalType": "uint256",
          "name": "amount",
          "type": "uint256"
        }
      ],
      "name": "createFlashLoan",
      "outputs": [],
      "stateMutability": "nonpayable",
      "type": "function"
    },
    {
      "inputs": [
        {
          "internalType": "address",
          "name": "asset",
          "type": "address"
        },
        {
          "internalType": "uint256",
          "name": "amount",
          "type": "uint256"
        },
        {
          "internalType": "uint256",
          "name": "premium",
          "type": "uint256"
        },
        {
          "internalType": "address",
          "name": "initiator",
          "type": "address"
        },
        {
          "internalType": "bytes",
          "name": "params",
          "type": "bytes"
        }
      ],
      "name": "executeOperation",
      "outputs": [
        {
          "internalType": "bool",
          "name": "",
          "type": "bool"
        }
      ],
      "stateMutability": "nonpayable",
      "type": "function"
    }
  ],
  "bytecode": "0x60c060405234801561001057600080fd5b5060405162000a5f38038062000a5f83398181016040528101906100349190610187565b808073ffffffffffffffffffffffffffffffffffffffff1660808173ffffffffffffffffffffffffffffffffffffffff16815250508073ffffffffffffffffffffffffffffffffffffffff1663026b1d5f6040518163ffffffff1660e01b8152600401602060405180830381865afa1580156100b4573d6000803e3d6000fd5b505050506040513d601f19601f820116820180604052508101906100d891906101e0565b73ffffffffffffffffffffffffffffffffffffffff1660a08173ffffffffffffffffffffffffffffffffffffffff1681525050505061020d565b600080fd5b600073ffffffffffffffffffffffffffffffffffffffff82169050919050565b600061014282610117565b9050919050565b600061015482610137565b9050919050565b61016481610149565b811461016f57600080fd5b50565b6000815190506101818161015b565b92915050565b60006020828403121561019d5761019c610112565b5b60006101ab84828501610172565b91505092915050565b6101bd81610137565b81146101c857600080fd5b50565b6000815190506101da816101b4565b92915050565b6000602082840312156101f6576101f5610112565b5b6000610204848285016101cb565b91505092915050565b60805160a05161081f620002406000396000818161011a015281816101e801526102b30152600060db015261081f6000f3fe608060405234801561001057600080fd5b506004361061004c5760003560e01c80630542975c146100515780630a6095da1461006f5780631b11d0ff1461008b5780637535d246146100bb575b600080fd5b6100596100d9565b604051610066919061036a565b60405180910390f35b61008960048036038101906100849190610403565b6100fd565b005b6100a560048036038101906100a091906104a8565b6101b2565b6040516100b2919061055d565b60405180910390f35b6100c36102b1565b6040516100d09190610599565b60405180910390f35b7f000000000000000000000000000000000000000000000000000000000000000081565b6000309050600060405180602001604052806000815250905060007f000000000000000000000000000000000000000000000000000000000000000073ffffffffffffffffffffffffffffffffffffffff166342b0b77c84878786866040518663ffffffff1660e01b8152600401610179959493929190610688565b600060405180830381600087803b15801561019357600080fd5b505af11580156101a7573d6000803e3d6000fd5b505050505050505050565b6000806101c886886102d590919063ffffffff16565b90508773ffffffffffffffffffffffffffffffffffffffff1663095ea7b37f0000000000000000000000000000000000000000000000000000000000000000836040518363ffffffff1660e01b81526004016102259291906106e2565b6020604051808303816000875af1158015610244573d6000803e3d6000fd5b505050506040513d601f19601f820116820180604052508101906102689190610737565b507ff950957d2407bed19dc99b718b46b4ce6090c05589006dfb86fd22c34865b23e888260405161029a9291906106e2565b60405180910390a160019150509695505050505050565b7f000000000000000000000000000000000000000000000000000000000000000081565b600081836102e39190610793565b905092915050565b600073ffffffffffffffffffffffffffffffffffffffff82169050919050565b6000819050919050565b600061033061032b610326846102eb565b61030b565b6102eb565b9050919050565b600061034282610315565b9050919050565b600061035482610337565b9050919050565b61036481610349565b82525050565b600060208201905061037f600083018461035b565b92915050565b600080fd5b600080fd5b600061039a826102eb565b9050919050565b6103aa8161038f565b81146103b557600080fd5b50565b6000813590506103c7816103a1565b92915050565b6000819050919050565b6103e0816103cd565b81146103eb57600080fd5b50565b6000813590506103fd816103d7565b92915050565b6000806040838503121561041a57610419610385565b5b6000610428858286016103b8565b9250506020610439858286016103ee565b9150509250929050565b600080fd5b600080fd5b600080fd5b60008083601f84011261046857610467610443565b5b8235905067ffffffffffffffff81111561048557610484610448565b5b6020830191508360018202830111156104a1576104a061044d565b5b9250929050565b60008060008060008060a087890312156104c5576104c4610385565b5b60006104d389828a016103b8565b96505060206104e489828a016103ee565b95505060406104f589828a016103ee565b945050606061050689828a016103b8565b935050608087013567ffffffffffffffff8111156105275761052661038a565b5b61053389828a01610452565b92509250509295509295509295565b60008115159050919050565b61055781610542565b82525050565b6000602082019050610572600083018461054e565b92915050565b600061058382610337565b9050919050565b61059381610578565b82525050565b60006020820190506105ae600083018461058a565b92915050565b6105bd8161038f565b82525050565b6105cc816103cd565b82525050565b600081519050919050565b600082825260208201905092915050565b60005b8381101561060c5780820151818401526020810190506105f1565b8381111561061b576000848401525b50505050565b6000601f19601f8301169050919050565b600061063d826105d2565b61064781856105dd565b93506106578185602086016105ee565b61066081610621565b840191505092915050565b600061ffff82169050919050565b6106828161066b565b82525050565b600060a08201905061069d60008301886105b4565b6106aa60208301876105b4565b6106b760408301866105c3565b81810360608301526106c98185610632565b90506106d86080830184610679565b9695505050505050565b60006040820190506106f760008301856105b4565b61070460208301846105c3565b9392505050565b61071481610542565b811461071f57600080fd5b50565b6000815190506107318161070b565b92915050565b60006020828403121561074d5761074c610385565b5b600061075b84828501610722565b91505092915050565b7f4e487b7100000000000000000000000000000000000000000000000000000000600052601160045260246000fd5b600061079e826103cd565b91506107a9836103cd565b9250827fffffffffffffffffffffffffffffffffffffffffffffffffffffffffffffffff038211156107de576107dd610764565b5b82820190509291505056fea26469706673582212209a34d850e7245a222cdf658dc47985538ddd161301a2f4dc9b0383906130b54364736f6c634300080a0033",
  "linkReferences": {},
  "deployedLinkReferences": {}
}